010000000148388600100510000000000000000020570017370208815 000000645242600000000000000ANDRES  TORRENTES                   CALI                                                                                                                    PAGO1925022024                                                                  
01000009014917501010052000000000000000001487024721        000000630046300000000000000IGNITIVE  SAS                       CALI                                                                                                                    PAGO1925022024                                                                  
01000000066769163010051000000000000000002488430258449     000000123286800000000000000MARIA LEONID BAUTISTA               CALI                                                                                                                    PAGO1925022024                                                                  
01000000001041945010013097700020006027600                 000000202082200000000000000BRAYAN ALEXANDER DIAZ               CALI                                                                                                                    PAGO1925022024                                                                  
01000009015755347010013053200020044073200                 000000097383600000000000000CRISTTIAN DAVID MONTANO             CALI                                                                                                                    PAGO1925022024                                                                  
01000000016744958010013085800020008656400                 000000056369000000000000000V Y EUROPA  SAS                     CALI                                                                                                                    PAGO1925022024                                                                  
